:020000040800F2
:1000000000500020512100088D0C00088F0C0008C2
:10001000910C0008930C0008950C000800000000EB
:10002000000000000000000000000000970C000825
:10003000990C0008000000009B0C00089D0C0008B3
:1000400099210008992100089921000899210008A8
:100050009921000899210008992100089921000898
:100060009921000899210008992100089921000888
:100070009921000899210008992100089921000878
:100080009921000899210008992100089921000868
:100090009921000899210008992100089921000858
:1000A0009921000899210008992100089921000848
:1000B0009921000899210008992100089921000838
:1000C0009921000899210008992100089921000828
:1000D0009921000899210008992100089921000818
:1000E00099210008992100089921000800000000CA
:1000F0000000000000000000000000000000000000
:0C01000000000000000000005FF808F1A3
:10010C0010B5054C237833B9044B13B10448AFF345
:10011C0000800123237010BD880000200000000027
:10012C00602A000808B5034B1BB103490348AFF321
:10013C00008008BD000000008C000020602A000830
:10014C0081F0004102E000BF83F0004330B54FEA7C
:10015C0041044FEA430594EA050F08BF90EA020FE9
:10016C001FBF54EA000C55EA020C7FEA645C7FEA7C
:10017C00655C00F0E2804FEA5454D4EB5555B8BF9F
:10018C006D420CDD2C4480EA020281EA030382EA10
:10019C00000083EA010180EA020281EA0303362DA2
:1001AC0088BF30BD11F0004F4FEA01314FF4801C75
:1001BC004CEA113102D0404261EB410113F0004F87
:1001CC004FEA03334CEA133302D0524263EB43033E
:1001DC0094EA050F00F0A780A4F10104D5F1200EDC
:1001EC000DDB02FA0EFC22FA05F2801841F1000137
:1001FC0003FA0EF2801843FA05F359410EE0A5F10B
:10020C0020050EF1200E012A03FA0EFC28BF4CF03B
:10021C00020C43FA05F3C01851EBE37101F00045F1
:10022C0007D54FF0000EDCF1000C7EEB00006EEBFE
:10023C000101B1F5801F1BD3B1F5001F0CD3490888
:10024C005FEA30004FEA3C0C04F101044FEA4452DF
:10025C0012F5800F80F09A80BCF1004F08BF5FEA66
:10026C00500C50F1000041EB045141EA050130BD46
:10027C005FEA4C0C404141EB010111F4801FA4F1E9
:10028C000104E9D191F0000F04BF01460020B1FA3E
:10029C0081F308BF2033A3F10B03B3F120020CDA76
:1002AC000C3208DD02F1140CC2F10C0201FA0CF054
:1002BC0021FA02F10CE002F11402D8BFC2F1200CB9
:1002CC0001FA02F120FA0CFCDCBF41EA0C0190406F
:1002DC00E41AA2BF01EB0451294330BD6FEA0404B8
:1002EC001F3C1CDA0C340EDC04F11404C4F12002A3
:1002FC0020FA04F001FA02F340EA030021FA04F3B5
:10030C0045EA030130BDC4F10C04C4F1200220FA0B
:10031C0002F001FA04F340EA0300294630BD21FA49
:10032C0004F0294630BD94F0000F83F4801306BF0F
:10033C0081F480110134013D4EE77FEA645C18BF03
:10034C007FEA655C29D094EA050F08BF90EA020F9A
:10035C0005D054EA000C04BF1946104630BD91EA92
:10036C00030F1EBF0021002030BD5FEA545C05D195
:10037C004000494128BF41F0004130BD14F58004D4
:10038C003CBF01F5801130BD01F0004545F0FE4148
:10039C0041F470014FF0000030BD7FEA645C1ABF7D
:1003AC00194610467FEA655C1CBF0B46024650EAB4
:1003BC00013406BF52EA033591EA030F41F40021E0
:1003CC0030BD00BF90F0000F04BF0021704730B566
:1003DC004FF4806404F132044FF000054FF000013B
:1003EC0050E700BF90F0000F04BF0021704730B5FC
:1003FC004FF4806404F1320410F0004548BF4042D1
:10040C004FF000013EE700BF42004FEAE2014FEA25
:10041C0031014FEA02701FBF12F07F4393F07F4F00
:10042C0081F06051704732F07F4208BF704793F003
:10043C007F4F04BF41F40021704730B54FF4607416
:10044C0001F0004521F000411CE700BF50EA010219
:10045C0008BF704730B54FF000050AE050EA0102C2
:10046C0008BF704730B511F0004502D5404261EB32
:10047C0041014FF4806404F132045FEA915C3FF473
:10048C00D8AE4FF003025FEADC0C18BF03325FEA10
:10049C00DC0C18BF033202EBDC02C2F1200300FAC1
:1004AC0003FC20FA02F001FA03FE40EA0E0021FAE6
:1004BC0002F11444BDE600BF70B54FF0FF0C4CF4D4
:1004CC00E06C1CEA11541DBF1CEA135594EA0C0F86
:1004DC0095EA0C0F00F0DEF82C4481EA030621EAC1
:1004EC004C5123EA4C5350EA013518BF52EA0335FC
:1004FC0041F4801143F4801338D0A0FB02CE4FF0AE
:10050C000005E1FB02E506F00042E0FB03E54FF0DD
:10051C000006E1FB03569CF0000F18BF4EF0010ED5
:10052C00A4F1FF04B6F5007F64F5407404D25FEAD1
:10053C004E0E6D4146EB060642EAC62141EA555184
:10054C004FEAC52040EA5E504FEACE2EB4F1FD0CC6
:10055C0088BFBCF5E06F1ED8BEF1004F08BF5FEA44
:10056C00500E50F1000041EB045170BD06F00046F6
:10057C0046EA010140EA020081EA0301B4EB5C04A3
:10058C00C2BFD4EB0C0541EA045170BD41F480119B
:10059C004FF0000E013C00F3AB8014F1360FDEBFC0
:1005AC00002001F0004170BDC4F10004203C35DA9C
:1005BC000C341BDC04F11404C4F1200500FA05F31F
:1005CC0020FA04F001FA05F240EA020001F00042C0
:1005DC0021F0004110EBD37021FA04F642EB060136
:1005EC005EEA430E08BF20EAD37070BDC4F10C0460
:1005FC00C4F1200500FA04F320FA05F001FA04F224
:10060C0040EA020001F0004110EBD37041F100010F
:10061C005EEA430E08BF20EAD37070BDC4F120051A
:10062C0000FA05F24EEA020E20FA04F301FA05F282
:10063C0043EA020321FA04F001F0004121FA04F22A
:10064C0020EA020000EBD3705EEA430E08BF20EAFA
:10065C00D37070BD94F0000F0FD101F00046400034
:10066C0041EB010111F4801F08BF013CF7D041EAB6
:10067C00060195F0000F18BF704703F000465200BA
:10068C0043EB030313F4801F08BF013DF7D043EA8B
:10069C000603704794EA0C0F0CEA135518BF95EA41
:1006AC000C0F0CD050EA410618BF52EA4306D1D1C8
:1006BC0081EA030101F000414FF0000070BD50EAE7
:1006CC00410606BF1046194652EA430619D094EA71
:1006DC000C0F02D150EA013613D195EA0C0F05D15B
:1006EC0052EA03361CBF104619460AD181EA0301AF
:1006FC0001F0004141F0FE4141F470014FF0000067
:10070C0070BD41F0FE4141F4780170BD70B54FF001
:10071C00FF0C4CF4E06C1CEA11541DBF1CEA135581
:10072C0094EA0C0F95EA0C0F00F0A7F8A4EB050463
:10073C0081EA030E52EA03354FEA013100F088805A
:10074C004FEA03334FF0805545EA131343EA126323
:10075C004FEA022245EA111545EA10654FEA0026D8
:10076C000EF000419D4208BF964244F1FD0404F591
:10077C00407402D25B084FEA3202B61A65EB0305ED
:10078C005B084FEA32024FF480104FF4002CB6EBAA
:10079C00020E75EB030E22BFB61A754640EA0C002A
:1007AC005B084FEA3202B6EB020E75EB030E22BF6A
:1007BC00B61A754640EA5C005B084FEA3202B6EBAB
:1007CC00020E75EB030E22BFB61A754640EA9C006A
:1007DC005B084FEA3202B6EB020E75EB030E22BF3A
:1007EC00B61A754640EADC0055EA060E18D04FEAF8
:1007FC00051545EA16754FEA06164FEAC30343EA98
:10080C0052734FEAC2025FEA1C1CC0D111F4801F64
:10081C000BD141EA00014FF000004FF0004CB6E75D
:10082C0011F4801F04BF01430020B4F1FD0C88BFFC
:10083C00BCF5E06F3FF6AFAEB5EB030C04BFB6EB07
:10084C00020C5FEA500C50F1000041EB045170BDFA
:10085C000EF0004E4EEA113114EB5C04C2BFD4EB27
:10086C000C0541EA045170BD41F480114FF0000EAB
:10087C00013C90E645EA060E8DE60CEA135594EA27
:10088C000C0F08BF95EA0C0F3FF43BAF94EA0C0F2A
:10089C000AD150EA01347FF434AF95EA0C0F7FF49F
:1008AC0025AF104619462CE795EA0C0F06D152EAF3
:1008BC0003353FF4FDAE1046194622E750EA4106D7
:1008CC0018BF52EA43067FF4C5AE50EA41047FF4E8
:1008DC000DAF52EA43057FF4EBAE12E74FEA41024B
:1008EC0012F5001215D211D56FF47873B3EB625276
:1008FC0012D94FEAC12343F0004343EA505311F09D
:10090C00004F23FA02F018BF404270474FF000002E
:10091C00704750EA013005D111F0004008BF6FF06C
:10092C00004070474FF00000704700BF80F000405F
:10093C0002E000BF81F0004142001FBF5FEA4103AB
:10094C0092EA030F7FEA226C7FEA236C6AD04FEAAB
:10095C001262D2EB1363C1BFD218414048404140F0
:10096C00B8BF5B42192B88BF704710F0004F40F4A2
:10097C00000020F07F4018BF404211F0004F41F4BE
:10098C00000121F07F4118BF494292EA030F3FD08A
:10099C00A2F1010241FA03FC10EB0C00C3F120039D
:1009AC0001FA03F100F0004302D5494260EB40002C
:1009BC00B0F5000F13D3B0F1807F06D340084FEA97
:1009CC00310102F10102FE2A51D2B1F1004F40EB8C
:1009DC00C25008BF20F0010040EA030070474900F4
:1009EC0040EB000010F4000FA2F10102EDD1B0FABF
:1009FC0080FCACF1080CB2EB0C0200FA0CF0AABFB4
:100A0C0000EBC25052421843BCBFD0401843704751
:100A1C0092F0000F81F4000106BF80F40000013257
:100A2C00013BB5E74FEA41037FEA226C18BF7FEA2E
:100A3C00236C21D092EA030F04D092F0000F08BF70
:100A4C000846704790EA010F1CBF0020704712F057
:100A5C007F4F04D1400028BF40F00040704712F196
:100A6C0000723CBF00F50000704700F0004343F0FB
:100A7C00FE4040F4000070477FEA226216BF084631
:100A8C007FEA23630146420206BF5FEA412390EAF4
:100A9C00010F40F4800070474FF0000304E000BFEA
:100AAC0010F0004348BF40425FEA000C08BF70479B
:100ABC0043F0964301464FF000001CE050EA01025F
:100ACC0008BF70474FF000030AE000BF50EA010274
:100ADC0008BF704711F0004302D5404261EB410161
:100AEC005FEA010C02BF84460146002043F0B64386
:100AFC0008BFA3F18053A3F50003BCFA8CF2083AAB
:100B0C00A3EBC25310DB01FA02FC634400FA02FCB3
:100B1C00C2F12002BCF1004F20FA02F243EB0200BA
:100B2C0008BF20F00100704702F1200201FA02FC1C
:100B3C00C2F1200250EA4C0021FA02F243EB02000F
:100B4C0008BF20EADC70704730B587B000240294EF
:100B5C00039404940594144B9A6942F010029A6120
:100B6C009A6902F010020092009A9A6942F0080207
:100B7C009A619B6903F008030193019B0B4D22467C
:100B8C004FF40051284601F045FA4FF400530293FC
:100B9C000123039304940223059302A9284601F030
:100BAC004FF907B030BD00BF0010024000100140EB
:100BBC0008B50948094B0360094B43600023836067
:100BCC00C3604FF48042026143618361C36103627D
:100BDC0000F046FC08BD00BFB804002000540040E3
:100BEC00801A060008B500F0E1FA08BD08B56420CB
:100BFC0000F0F2FD08BD000010B590B024220021D9
:100C0C0007A801F002FB00240194029403940494BD
:100C1C0005940223069301230A9310230B9306A831
:100C2C0000F004FE0F2301930294039404940594A2
:100C3C00214601A801F020F801F0ECF8084BA3FBC9
:100C4C000030800901F032FA042001F045FA224606
:100C5C0021464FF0FF3001F0F5F910B010BD00BF88
:100C6C00D34D621008B500F093FDFFF7C5FFFFF7F9
:100C7C006BFFFFF79DFFFFF7B5FFFFF7B7FFFCE733
:100C8C007047FEE7FEE7FEE7FEE7704770477047E8
:100C9C0008B500F08FFD08BD82B00E4B9A6942F08A
:100CAC0001029A619A6902F001020092009ADA69D3
:100CBC0042F08052DA61DB6903F080530193019BAF
:100CCC00054A536823F0E06343F08063536002B03D
:100CDC00704700BF001002400000014010B586B004
:100CEC00002302930393049305930268114B9A42D9
:100CFC0001D006B010BD104CA36943F00803A361EA
:100D0C00A36903F008030093009BC02302931223F2
:100D1C0003930323059302A9084801F091F8E369B2
:100D2C0043F40013E361E36903F400130193019BA3
:100D3C00DFE700BF0054004000100240000C0140EF
:100D4C0000B587B006AA02F8010D4FF0FF330293ED
:100D5C0001230193009200227821034800F034FC17
:100D6C0007B05DF804FB00BFB804002000B585B0E7
:100D7C004FF0FF33029389B201910090012340227E
:100D8C007821034800F020FC05B05DF804FB00BF9F
:100D9C00B8040020002303E0FF21054AD15401339D
:100DAC00B3F5806F03D20028F6D10021F5E7704728
:100DBC00AC00002010B5002412E0A4F15000C0B229
:100DCC00FFF7BEFF0020FFF7BBFF1020FFF7B8FFB7
:100DDC008021054800EBC410FFF7C8FF0134E4B2D2
:100DEC00072CEAD910BD00BFAC00002008B5642068
:100DFC0000F0F2FCAE20FFF7A3FF2020FFF7A0FFCE
:100E0C001020FFF79DFFB020FFF79AFFC820FFF7D7
:100E1C0097FF0020FFF794FF1020FFF791FF402071
:100E2C00FFF78EFF8120FFF78BFFFF20FFF788FF76
:100E3C00A120FFF785FFA620FFF782FFA820FFF770
:100E4C007FFF3F20FFF77CFFA420FFF779FFD32023
:100E5C00FFF776FF0020FFF773FFD520FFF770FF39
:100E6C00F020FFF76DFFD920FFF76AFF2220FFF774
:100E7C0067FFDA20FFF764FF1220FFF761FFDB202A
:100E8C00FFF75EFF2020FFF75BFF8D20FFF758FF79
:100E9C001420FFF755FFAF20FFF752FF0020FFF79C
:100EAC0079FFFFF787FF034B00221A805A8001223B
:100EBC005A7108BDA400002010F0800F15D13F29F5
:100ECC0013D8104B1B7913B1B2FA82F25209012AD2
:100EDC000CD0CB0800EBC31001F0070101238B40B1
:100EEC00094A115C21EA030111547047CB0800EB4D
:100EFC00C31001F0070101238B40034A115C194315
:100F0C0011547047A4000020AC0000202DE9F04FD4
:100F1C0083B002AC04E90600244A12889DF80060F4
:100F2C0032447F2A3CDC214A52889DF801A0D346EA
:100F3C0052443F2A38DC9846814600251FE01B4B63
:100F4C001888598829442044B8FA88F25209C9B241
:100F5C00C0B2FFF7B1FF0134A6420FD907FA04F370
:100F6C0013F4004FEBD0114B1888598829442044B6
:100F7C004246C9B2C0B2FFF79FFFECE70135AA4564
:100F8C0008D9A9F1200303FB0B53019A32F8137013
:100F9C000024E1E7054B1A8816441E80484600E001
:100FAC00002003B0BDE8F08F0020FAE7A400002079
:100FBC0070B582B0054602A800E906001E462C78E2
:100FCC005CB1334602AA12E906002046FFF79EFFE9
:100FDC002C78A04201D10135F1E7204602B070BD5A
:100FEC00014B188059807047A400002070B5002078
:100FFC00FFF7D0FE00F0EAFB06460024254615E07C
:10100C007F2D1FD03F2C22D0013CE4B2012221467F
:10101C002846FFF751FFFFF7CDFE052000F0DCFB63
:10102C0000F0D4FB801BB0F5FA5F15D200222146EC
:10103C002846FFF741FF002CE2D17E2DE0D8013588
:10104C00EDB2E3E73E2CDDD80134E4B2DEE7002D4F
:10105C00DAD0013DEDB2D9E74FF47A7000F0BCFB69
:10106C0070BD000008B50020FFF794FE002102209F
:10107C00FFF7B6FF0E4A012306CA0E48FFF798FF8A
:10108C001A210220FFF7ACFF0B4A012306CA0B48BA
:10109C00FFF78EFF2C210220FFF7A2FF084A012345
:1010AC0006CA0848FFF784FFFFF784FE08BD00BF9F
:1010BC0008000020C052000800000020CC5200089C
:1010CC0010000020D8520008F0B595B00120FFF7B1
:1010DC0061FE00F07BFB06462F4B93E8070014AB38
:1010EC0003E9070000210220FFF77AFF2B4A0023B7
:1010FC0006CA2B48FFF75CFF002412210220FFF7E1
:10110C006FFF264A002306CA11A8FFF751FFFFF70D
:10111C0051FE9DF844500A220DF1450111A801F031
:10112C005BF88DF84E50013400F050FB851B41F2FA
:10113C0087339D42E1D94FF47A7000F04DFB204685
:10114C00FFF7AEFCFFF760F906460F462846FFF79F
:10115C0039F90022134BFFF7D9FA02460B463046F9
:10116C003946FFF7D3FAFFF7B9FB03460E4A402185
:10117C0001A801F053F80120FFF70CFE1221022008
:10118C00FFF72EFF054A002306CA01A8FFF710FF40
:10119C00FFF710FE15B0F0BDB4520008000000209F
:1011AC00A052000800408F40AC52000808B5FFF771
:1011BC001DFEFFF789FF40F6B83000F00DFBFFF77E
:1011CC0015FFFFF74FFF08BD03685A6912F4806FD3
:1011DC000DD06FF480625A6104230364002303630F
:1011EC00202280F83D2080F83C3001207047002000
:1011FC007047F8B506460C4617461D461EE02DB145
:10120C0000F0E4FA069BC01AA84217D900233363F6
:10121C00202286F83D2086F83E3086F83C300320AC
:10122C001AE033685B6924EA03039BB2B3FA83F3D5
:10123C005B099F420FD1B5F1FF3FE0D1C4F30743E7
:10124C00012BEED033689B6924EA03039BB2B3FAFB
:10125C0083F35B09EDE70020F8BDF8B504460D46B5
:10126C0016461F4632E01A6842F400721A60236870
:10127C006FF480625A6104232364002323632022C9
:10128C0084F83D2084F83C3001202DE026B100F09C
:10129C009DFAC01BB04219D900232363202284F885
:1012AC003D2084F83C3003201EE023685B6925EA6E
:1012BC0003039BB2003318BF0123A3B123685A69FF
:1012CC0012F4806FCFD1B6F1FF3FDFD1C5F30743E6
:1012DC00012BEAD023689B6925EA03039BB20033F8
:1012EC0018BF0123E9E70020F8BD70B504460D4690
:1012FC00164623685B6913F0800F19D12046FFF75F
:10130C0063FFB8B9B5F1FF3FF3D025B100F05EFA39
:10131C00801BA842EDD9236C43F0200323640023E7
:10132C002363202284F83D2084F83C30032000E025
:10133C00002070BD0120FCE72DE9F04184B004468B
:10134C000E46174698460B9D0268136843F480734B
:10135C00136000950A9B00224FF00111FFF749FF23
:10136C00002847D1236806F0FE061E612B460A9A18
:10137C0026492046FFF771FF20B1236C042B3ED188
:10138C00012338E00023039323685A6903929B6975
:10139C000393039B2A460A992046FFF7A6FF0346B0
:1013AC0048B1236C042B2CD12268136843F40073CE
:1013BC00136001231FE0B8F1010F13D023683A0A20
:1013CC001A612A460A992046FFF78FFF034668B137
:1013DC00236C042B17D12268136843F40073136039
:1013EC00012308E02268FFB2176104E02268FFB213
:1013FC00176100E00323184604B0BDE8F081032315
:10140C00F9E70323F7E70323F5E700BF0200010028
:10141C0070B504460D46164623685B6913F0040F3D
:10142C0019D12046FFF7D0FEB8B9B5F1FF3FF3D084
:10143C0025B100F0CBF9801BA842EDD9236C43F009
:10144C002003236400232363202284F83D2084F8A6
:10145C003C30032000E0002070BD0120FCE70000C0
:10146C00002800F0A28038B5044690F83D30002BDF
:10147C004FD0242384F83D302268136823F00103F5
:10148C00136000F0CDFC62684A4B9A4246D84A4B36
:10149C0098428CBF00230123002B40F08880474BDF
:1014AC00A3FB00239B0C226853606168414A914264
:1014BC003AD801332268136261683E4B99423DD899
:1014CC00431E4900B3FBF1F30133C3F30B03042BAD
:1014DC0038BF04232268D361E369216A22680B4375
:1014EC0013602369E16822680B4393606369A16907
:1014FC0022680B43D3602268136843F00103136026
:10150C0000202064202384F83D30206384F83E00C2
:10151C0038BD80F83C30FFF7E1FBAAE7284B984236
:10152C008CBF00230123B7E74FF4967202FB03F341
:10153C00244AA2FB03239B090133BBE7A368BBB975
:10154C00421E01EB4105B2FBF5F20132C2F30B0274
:10155C00B2FA82F2520932BBC3B9013801EB410332
:10156C00B0FBF3F30133C3F30B0343F40043B1E7D4
:10157C00421E01EB810505EB8505B2FBF5F201324C
:10158C00C2F30B02B2FA82F25209E4E7013801EB22
:10159C00810303EB8303B0FBF3F30133C3F30B03BE
:1015AC0043F4404396E7012394E701207047012060
:1015BC00AEE700BFA08601007F841E0083DE1B43C4
:1015CC00FF083D00D34D62102DE9F04182B0044676
:1015DC000E461746984600F0F9F894F83D30DBB209
:1015EC00202B04D00223184602B0BDE8F08105463A
:1015FC0000901923012251492046FFF7FAFD0028DB
:10160C0040F0938094F83C30012B00F09080012343
:10161C0084F83C3023681A6812F0010F03D11A6861
:10162C0042F001021A602268136823F4006313600D
:10163C00212384F83D30402384F83E30002323647A
:10164C00089B6362BDF8243063853D4BE362638D78
:10165C00238501950A9B009343463A463146204622
:10166C00FFF76AFEB0B1236C042B04D1002384F87D
:10167C003C300123B7E7002384F83C300323B2E766
:10168C00236C042B55D12268136843F40073136048
:10169C000123A8E7238D002B28D02A460A9920463F
:1016AC00FFF723FE0028EBD1636A5A1C62622268A2
:1016BC001B781361238D013B9BB22385628D013A0C
:1016CC0092B262852268516911F0040FE2D0002BAE
:1016DC00E0D0636A591C61621B781361238D013B56
:1016EC002385638D013B9BB26385D3E72A460A9918
:1016FC002046FFF78DFE034648B1236C042B1AD10C
:10170C002268136843F40073136001236BE72168AC
:10171C000A6842F400720A60202284F83D200022FC
:10172C0084F83E2084F83C205DE702235BE702232B
:10173C0059E7032357E7032355E700BF02001000C6
:10174C000000FFFF10B504460E4B18784FF47A7367
:10175C00B3FBF0F30C4A1068B0FBF3F000F0A6FCFE
:10176C0068B90F2C01D901200AE0002221464FF064
:10177C00FF3000F067FC054B1C60002000E00120EE
:10178C0010BD00BF18000020200000201C0000200D
:10179C0008B5074A136843F010031360032000F0E8
:1017AC003FFC0020FFF7CEFFFFF776FA002008BDC4
:1017BC0000200240034A1168034B1B780B44136052
:1017CC00704700BF0C05002018000020014B186862
:1017DC00704700BF0C05002038B50446FFF7F6FF34
:1017EC000546B4F1FF3F02D0044B1B781C44FFF7B5
:1017FC00EDFF401BA042FAD338BD00BF18000020FB
:10180C0082B0084B1B68084AA2FB03235B0A00FB4F
:10181C0003F0019000BF019B5A1E0192002BF9D1DD
:10182C0002B0704720000020D34D621070B582B01A
:10183C000446036813F0010F2CD0AB4B5B6803F02C
:10184C000C03042B1DD0A84B5B6803F00C03082B76
:10185C0012D06368B3F5803F41D0002B55D103F112
:10186C00804303F504331A6822F480321A601A6834
:10187C0022F480221A6037E09B4B5B6813F4803FA4
:10188C00E7D0994B1B6813F4003F03D06368002B1F
:10189C0000F0AE81236813F0020F76D0924B5B6898
:1018AC0013F00C0F5FD0904B5B6803F00C03082B0C
:1018BC0054D02369002B00F08A808C4B01221A60D3
:1018CC00FFF784FF0546884B1B6813F0020F75D198
:1018DC00FFF77CFF401B0228F5D903208BE1824ADD
:1018EC00136843F480331360636843B3FFF76EFFF0
:1018FC0005467D4B1B6813F4003FCBD1FFF766FF09
:10190C00401B6428F5D9032075E1B3F5A02F09D04D
:10191C00754B1A6822F480321A601A6822F48022FD
:10192C001A60E1E703F18043A3F53C331A6842F4F3
:10193C0080221A601A6842F480321A60D4E7FFF7EA
:10194C0045FF0546684B1B6813F4003FA2D0FFF718
:10195C003DFF401B6428F5D903204CE1624B5B68CA
:10196C0013F4803FA5D1604B1B6813F0020F04D019
:10197C002369012B01D001203DE15B4A136823F060
:10198C00F803616943EAC1031360236813F0080F7D
:10199C0032D0A369002B5BD0554B01221A60FFF7A4
:1019AC0015FF0546504B5B6A13F0020F21D1FFF770
:1019BC000DFF401B0228F5D903201CE14A4A13688D
:1019CC0023F0F803616943EAC1031360DDE7474B79
:1019DC0000221A60FFF7FAFE0546434B1B6813F012
:1019EC00020FD2D0FFF7F2FE401B0228F5D90320DC
:1019FC0001E10120FFF704FF236813F0040F00F04E
:101A0C009780394BDB6913F0805F33D1364BDA6941
:101A1C0042F08052DA61DB6903F080530193019B41
:101A2C000125344B1B6813F4807F25D0E368012B10
:101A3C0036D0002B4CD103F1804303F504331A6AE2
:101A4C0022F001021A621A6A22F004021A622CE0D5
:101A5C00274B00221A60FFF7B9FE0546224B5B6A42
:101A6C0013F0020FC8D0FFF7B1FE401B0228F5D9C6
:101A7C000320C0E00025D4E71E4A136843F48073AA
:101A8C001360FFF7A3FE06461A4B1B6813F4807F06
:101A9C00CCD1FFF79BFE801B6428F5D90320AAE06C
:101AAC00114A136A43F001031362E36873B3FFF73F
:101ABC008DFE06460C4B1B6A13F0020F37D1FFF755
:101ACC0085FE801B41F288339842F3D9032092E0C3
:101ADC00052B11D0044B1A6A22F001021A621A6A01
:101AEC0022F004021A62E0E70010024000004242B9
:101AFC008004424200700040414B1A6A42F00402DA
:101B0C001A621A6A42F001021A62CEE7FFF75EFE11
:101B1C0006463B4B1B6A13F0020F08D0FFF756FE2C
:101B2C00801B41F288339842F3D9032063E0E5B976
:101B3C00E369002B5ED0324A526802F00C02082A8C
:101B4C005BD0022B17D02F4B00221A60FFF73EFE02
:101B5C0004462B4B1B6813F0007F47D0FFF736FE73
:101B6C00001B0228F5D9032045E0254AD36923F050
:101B7C008053D361DCE7234B00221A60FFF726FE6B
:101B8C0005461F4B1B6813F0007F06D0FFF71EFEA7
:101B9C00401B0228F5D903202DE0236AB3F5803FC2
:101BAC001AD017494B6823F47413226A606A0243F3
:101BBC0013434B60134B01221A60FFF707FE0446D8
:101BCC000F4B1B6813F0007F0ED1FFF7FFFD001BBE
:101BDC000228F5D903200EE0094A536823F4003398
:101BEC00A1680B435360DCE7002004E0002002E016
:101BFC00012000E0002002B070BD0120FBE700BF17
:101C0C00001002406000424210B487B0164C94E8B9
:101C1C000F000DF1180C0CE90F00238AADF80430FD
:101C2C00124B5B6803F00C02082A1AD1C3F38342EF
:101C3C00624412F8102C13F4803F05D10C4800FBC1
:101C4C0002F007B010BC7047084B5B68C3F340430D
:101C5C00634413F8143C074800FB02F0B0FBF3F0AC
:101C6C00EFE70448EDE700BF782A000800100240B7
:101C7C0000093D0000127A00624B1B6803F0070359
:101C8C008B420CD25F4A136823F007030B4313609B
:101C9C00136803F007038B4201D00120704770B525
:101CAC00036813F0020F17D013F0040F04D0564A38
:101CBC00536843F4E0635360036813F0080F04D0D7
:101CCC00514A536843F4605353604F4A536823F0AE
:101CDC00F0038468234353600D460446036813F0F5
:101CEC00010F52D04368012B23D0022B28D0464A37
:101CFC00126812F0020F00F0828043494A6822F009
:101D0C00030213434B60FFF761FD06466368012B2A
:101D1C001DD0022B2AD03C4B5B6813F00C0F34D037
:101D2C00FFF754FD801B41F288339842F3D903200E
:101D3C0064E0354A126812F4003FDED101205DE008
:101D4C00314A126812F0007FD7D1012056E02E4B99
:101D5C005B6803F00C03042B17D0FFF737FD801BD7
:101D6C0041F288339842F2D9032047E0264B5B6856
:101D7C0003F00C03082B08D0FFF728FD801B41F261
:101D8C0088339842F2D9032038E01E4B1B6803F0CD
:101D9C000703AB420CD91B4A136823F007032B43F0
:101DAC001360136803F00703AB4201D0012025E058
:101DBC00236813F0040F06D0134A536823F4E0632E
:101DCC00E1680B435360236813F0080F07D00E4AE9
:101DDC00536823F46053216943EAC1035360FFF74E
:101DEC0013FF094B5B68C3F30313084AD35CD84059
:101DFC00074B18600020FFF7A5FC002070BD0120E8
:101E0C00FCE700BF0020024000100240E452000832
:101E1C0020000020014B1868704700BF20000020F4
:101E2C0008B5FFF7F7FF044B5B68C3F30223034AC3
:101E3C00D35CD84008BD00BF00100240F45200082B
:101E4C00F0B482B000263546A1E0002C59D0012C0C
:101E5C0000D1CE68FF2B68D88446FF2B68D8AC0025
:101E6C00DCF800200F27A74022EA070206FA04F448
:101E7C002243CCF800204A6812F0805F00F0868084
:101E8C005E4A946944F001049461926902F0010283
:101E9C000192019AAC08A71C594A52F8272005F068
:101EAC000307BF004FF00F0C0CFA07FC22EA0C0CD6
:101EBC00544A904242D002F5806290427FD002F5A3
:101ECC00806290427DD002F58062904234D0042230
:101EDC0035E04D4FBC4214D00BD94C4FBC4210D006
:101EEC0007F58037BC420CD0A7F58017BC42B1D1A6
:101EFC0007E0A7F58017BC4203D007F58037BC423A
:101F0C00A8D18C687CB1012C08D042610826A1E7CD
:101F1C00CE6808369EE7CE680C369BE70261082631
:101F2C0098E7002696E7042694E700F1040C94E762
:101F3C00A5F10804A40093E7032200E00022BA40B4
:101F4C0042EA0C0202342E4F47F824204A6812F45D
:101F5C00803F38D02E4C22681A4322604A6812F413
:101F6C00003F36D02A4C62681A4362604A6812F409
:101F7C00801F34D0264CA2681A43A2604A6812F41F
:101F8C00001F32D0224CE2681343E36001350F2D61
:101F9C0031D80122AA400B6813409A42F6D14C6802
:101FAC00122CB8D095D8022CB2D07FF64EAF032CA1
:101FBC00B7D0112C7FF44EAFCE6804364AE701221D
:101FCC00BDE70222BBE7124C226822EA0302226020
:101FDC00C4E70F4C626822EA03026260C6E70C4C4D
:101FEC00A26822EA0302A260C8E7094CE26822EA6E
:101FFC000303E360CAE702B0F0BC70470010024074
:10200C0000000140000801400000211000003110C8
:10201C000004014012B90904016170470161704765
:10202C00074AD36823F4E0631B041B0C000200F482
:10203C00E060184340F0BF6040F40030D06070475F
:10204C0000ED00E030B4174BDB68C3F30223C3F19F
:10205C000704042C28BF04241D1D062D18D9033B8E
:10206C004FF0FF3505FA04F421EA0401994005FA12
:10207C0003F322EA0303194300280BDB0901C9B25D
:10208C0000F1604000F5614080F8001330BC7047EF
:10209C000023E5E700F00F000901C9B2024B195407
:1020AC00F4E700BF00ED00E014ED00E00138B0F102
:1020BC00807F0AD2064B5860064AF02182F8231022
:1020CC000020986007221A6070470120704700BFFB
:1020DC0010E000E000ED00E0042805D0054A13688C
:1020EC0023F0040313607047024A136843F004039F
:1020FC001360704710E000E00F4B1A6842F00102C9
:10210C001A6059680D4A0A405A601A6822F08472A3
:10211C0022F480321A601A6822F480221A605A68FB
:10212C0022F4FE025A604FF41F029A60044B4FF0E7
:10213C0000629A60704700BF001002400000FFF878
:10214C0000ED00E0002103E00B4B5B5843500431E1
:10215C000A480B4B42189A42F6D30A4A02E0002373
:10216C0042F8043B084B9A42F9D3FFF7C5FF00F045
:10217C000FF8FEF777FD7047385300080000002079
:10218C00880000208800002014050020FEE70000D5
:10219C0070B500250C4E0D4CA41BA410A54209D102
:1021AC0000F058FC00250A4E0A4CA41BA410A542B2
:1021BC0005D170BD56F8253098470135EEE756F835
:1021CC00253098470135F2E73053000830530008AA
:1021DC003053000834530008884210B501EB020359
:1021EC0007D8421E99420AD011F8014B02F8014F50
:1021FC00F8E78342F5D98118D21AD34200D110BD29
:10220C0013F8014D01F8014DF7E7034602449342E0
:10221C0000D1704703F8011BF9E700000CB430B58E
:10222C00174B0C1E9DB01D6808DA8B234FF0FF3046
:10223C002B601DB0BDE8304002B070474FF4027304
:10224C00ADF814300CBF234604F1FF33049307930D
:10225C004FF6FF7302900690ADF81630209A21AB22
:10226C0002A92846019300F067F8431CBCBF8B23DE
:10227C002B60002CDDD00022029B1A70D9E700BF26
:10228C00240000202DE9F0478E6882469E420C46C1
:10229C009046994637D88A8912F4906F31D0022330
:1022AC00256809696F1A656905EB450595FBF3F51A
:1022BC0009F101033B449D4238BF1D46530530D5FF
:1022CC00294600F01FFB064650B90C234FF0FF3097
:1022DC00CAF80030A38943F04003A381BDE8F0871E
:1022EC003A46216900F0B6FAA38923F4906343F0CF
:1022FC008003A38126613E4426604E466561ED1B3A
:10230C00A5604E4500D94E46324641462068FFF73F
:10231C0063FFA36800209B1BA36023681E442660F8
:10232C00DCE72A4600F048FB06460028E2D121698A
:10233C00504600F09BFAC8E72DE9F04F1D468B89FB
:10234C009DB01F0680460C4616460FD50B696BB91F
:10235C00402100F0D7FA2060206128B90C23C8F87E
:10236C0000304FF0FF30C8E0402363610023099335
:10237C0020238DF8293030234FF0010B8DF82A30B3
:10238C00039537463D4615F8013B0BB1252B3ED145
:10239C00B7EB060A0BD05346324621464046FFF7B0
:1023AC0071FF013000F0A480099B534409933B78E2
:1023BC00002B00F09D8000234FF0FF32CDE9052368
:1023CC00049307938DF853301A932F46052217F870
:1023DC00011B504800F030FA049BD0B9D90644BF19
:1023EC0020228DF853201A0744BF2B228DF853203E
:1023FC002A782A2A15D02F4600200A25079A394612
:10240C0011F8013B303B092B4DD9B8B10FE02F46E9
:10241C00B8E7404A3D46801A0BFA00F01843049086
:10242C00D3E7039A111D12680391002A01DB07926E
:10243C0004E0524243F00203079204933B782E2BA4
:10244C000CD17B782A2B33D1039B02371A1D1B68C6
:10245C000392002BB8BF4FF0FF3305932E4D032290
:10246C003978284600F0E8F938B14023401B03FACC
:10247C0000F0049B01370343049339780622274864
:10248C007E1C8DF8281000F0D7F9002838D0244B8A
:10249C0013BB039B073323F0070308330393099BF8
:1024AC004B4409936DE705FB023201200F46A6E76A
:1024BC0000230A25194601370593384610F8012BDD
:1024CC00303A092A03D9002BC8D00591C6E705FB81
:1024DC00012101230746F0E703AB00932246114B81
:1024EC0004A94046AFF30080B0F1FF3F8146D6D13E
:1024FC00A3895B063FF535AF09981DB0BDE8F08F99
:10250C0003AB00932246074B04A9404600F082F827
:10251C00EAE700BFFC52000802530008065300080B
:10252C0000000000912200082DE9F04791461F465B
:10253C008A680B6906469342B8BF1346C9F8003047
:10254C0091F843200C46DDF8208012B10133C9F814
:10255C0000302368990642BFD9F800300233C9F81D
:10256C000030256815F0060507D104F1190AE36857
:10257C00D9F800209B1AAB4229DC94F8433022682E
:10258C00003318BF012392062ED404F143023946BE
:10259C003046C047013021D02368E56803F00603BC
:1025AC00042B18BF0025D9F800204FF0000908BFF4
:1025BC00AD1AA368226908BF25EAE5759342C4BF2A
:1025CC009B1AED181A344D451AD1002008E001234E
:1025DC00524639463046C047013003D14FF0FF30E8
:1025EC00BDE8F0870135C2E73020E11881F84300DF
:1025FC005A1C94F845102244023382F84310C4E765
:10260C000123224639463046C0470130E6D009F155
:10261C000109D8E72DE9F04301F1430C0C46097E82
:10262C0085B06E291746064698460C9A00F0B38082
:10263C0022D8632936D00AD8002900F0B98058294D
:10264C0000F0838004F1420584F8421032E06429E2
:10265C0001D06929F6D120681368050603F104013D
:10266C002AD51B681160002B03DA2D225B4284F8FB
:10267C0043206F480A2239E0732900F09D8008D866
:10268C006F2920D07029DDD1236843F0200323600B
:10269C0003E0752917D07829D4D17823654884F8BC
:1026AC00453055E0136804F14205191D1B68116093
:1026BC0084F8423001238CE01B6810F0400F11604D
:1026CC0018BF1BB2CFE713682568181D10602806C9
:1026DC0001D51B6802E06806FBD51B886F2914BF67
:1026EC000A2208225248002184F843106568002D04
:1026FC00A560C0F29580216821F004012160002BB7
:10270C003DD1002D40F08E806546082A0BD1236800
:10271C00DB0708D5236962689A42DEBF302305F8CF
:10272C00013C05F1FF35ACEB05032361CDF80080CE
:10273C003B4603AA21463046FFF7F6FE01304DD149
:10274C004FF0FF3005B0BDE8F083394884F84510F0
:10275C00136821681D1D1B6815600A060BD5CA0776
:10276C0044BF41F0200121601BB9226822F02002F5
:10277C0022601022B7E74D0648BF9BB2EFE76546D3
:10278C00B3FBF2F102FB1133C35C05F8013D0B46C0
:10279C000029F5D1B9E713682568181D6169106027
:1027AC0028061B6801D5196002E06A06FBD5198062
:1027BC00002365462361B9E71368191D11601D6874
:1027CC0062680021284600F037F808B1401B6060B1
:1027DC0063682361002384F84330A7E723692A4602
:1027EC0039463046C0470130AAD023689B0713D422
:1027FC00E068039B9842B8BF1846A3E701234A46FA
:10280C0039463046C04701309AD00135E368039A07
:10281C009B1AAB42F2DCEBE7002504F11909F5E752
:10282C00002BACD1037804F1420584F842306CE7FC
:10283C000D5300081E53000810B5C9B20244904253
:10284C00034601D1002303E01C7801308C42F6D101
:10285C00184610BD10B5431E0A44914200D110BD5C
:10286C0011F8014B03F8014FF7E7000038B50546A6
:10287C00002943D051F8043C0C1F002BB8BFE418BE
:10288C0000F0D0F81E4A1368104633B96360146028
:10289C002846BDE8384000F0C6B8A3420BD92168E1
:1028AC006218934201BF1A685B6852182260636019
:1028BC000460EDE713465A680AB1A242FAD91968C6
:1028CC005818A0420BD12068014458188242196054
:1028DC00DED110685268014419605A60D8E702D9F9
:1028EC000C232B60D4E7206821188A4201BF1168A1
:1028FC0052680918216062605C60C9E738BD00BF8E
:10290C00AC04002070B5CD1C25F0030508350C2D4A
:10291C0038BF0C25002D064601DBA94203D90C2338
:10292C003360002070BD00F07DF8214A1468214608
:10293C0091B9204C23681BB9304600F063F8206035
:10294C002946304600F05EF8431C24D10C23304657
:10295C00336000F068F8E4E70B685B1B18D40B2BB2
:10296C000FD90B60CC18CD50304600F05CF804F158
:10297C000B00231D20F00700C31AD3D05A42E2509B
:10298C00D0E74B688C4216BF636013600C46EBE7D4
:10299C000C464968CCE7C41C24F00304A04205D0C3
:1029AC00211A304600F02EF80130CFD02560DBE73D
:1029BC00AC040020B0040020F8B5074614460E46BF
:1029CC0021B9BDE8F8401146FFF79CBF22B9FFF7CB
:1029DC004DFF25462846F8BD00F026F8A0420FD240
:1029EC0021463846FFF78EFF05460028F2D03146C7
:1029FC002246FFF72FFF31463846FFF737FFE9E74E
:102A0C003546E7E738B50023054C054608462360F4
:102A1C0000F012F8431C02D1236803B12B6038BDBF
:102A2C00100500207047704751F8043C181F002B0C
:102A3C00BCBF0B58C0187047044A05491368002BDB
:102A4C0008BF0B461844106018467047B4040020A9
:102A5C0018050020F8B500BFF8BC08BC9E467047AE
:0C2A6C00F8B500BFF8BC08BC9E467047DF
:102A780002030405060708090A0B0C0D0E0F1010B7
:102A8800010200000000000000000000000000003B
:102A9800000000000000000000000000000000002E
:102AA80000000000000000000000000C000C000CFA
:102AB800000C000C000C000C000C000C000C000CAE
:102AC8000000000C000C0000000000000000001BCB
:102AD800001B001B001B001B000000000000000082
:102AE80000000000000000000000000000000000DE
:102AF80000008019801980198019C07FC07F801953
:102B08000033C07FC07F0033003300330033000040
:102B1800000000000000001E003F80758065007402
:102B2800003C001E00078005806580658075003FB9
:102B3800001E0004000400000000007000D840D807
:102B4800C0D880D900730006000C801BC036C06650
:102B5800C046C00680030000000000000000001E00
:102B6800003F003300330033001E000CC03CC06639
:102B7800806380618063C03E801C0000000000000C
:102B88000000000C000C000C000C000C0000000001
:102B9800000000000000000000000000000000002D
:102BA8000000000080000001000300060006000489
:102BB800000C000C000C000C000C000C00040006BB
:102BC8000006000300018000002000100018000C1F
:102BD800000C0004000600060006000600060006B9
:102BE8000004000C000C0018001000200000000C6D
:102BF800002D003F001E0033000000000000000010
:102C080000000000000000000000000000000000BC
:102C1800000000000000000C000C000C000CC0FFBD
:102C2800C0FF000C000C000C000C000000000000AD
:102C3800000000000000000000000000000000008C
:102C48000000000000000000000000000000000C70
:102C5800000C000400040008000000000000000050
:102C680000000000000000000000001E001E000020
:102C7800000000000000000000000000000000004C
:102C8800000000000000000000000000000000003C
:102C9800000000000000000C000C00000000000014
:102CA80000000003000300030006000600060006FB
:102CB800000C000C000C000C001800180018000094
:102CC800000000000000001E003F003380618061AA
:102CD8008061806D806D8061806180610033003F1C
:102CE800001E00000000000000000006000E001E8C
:102CF800003600260006000600060006000600064C
:102D08000006000600060000000000000000001E8B
:102D1800003F807380618061800100030006000C21
:102D2800001800300060807F807F000000000000F5
:102D38000000001C003E006300630003000E000E4C
:102D480000038001800180618073003F001E000045
:102D58000000000000000006000E000E001E001E0D
:102D68000016003600360066807F807F0006000669
:102D780000060000000000000000007F007F0060E7
:102D880000600060006E007F8063800180018061C8
:102D98008073003F001E0000000000000000001EBD
:102DA800003F803380610060006E007F8073806127
:102DB800806180618033003F001E00000000000039
:102DC8000000807F807F800100030003000600066A
:102DD800000C000C000C0008001800180018000077
:102DE800000000000000001E003F806380618061D9
:102DF8000021001E003F8061806180618061003F8A
:102E0800001E0000000000000000001E003F0073CC
:102E18008061806180618073803F801D8001806156
:102E28000073003F001E00000000000000000000CA
:102E3800000000000000000C000C00000000000072
:102E4800000000000000000C000C00000000000062
:102E5800000000000000000000000000000C000C52
:102E680000000000000000000000000C000C00043E
:102E7800000400080000000000000000800080033B
:102E8800000E003800600038000E8003800000004B
:102E9800000000000000000000000000000000002A
:102EA8000000807F807F00000000807F807F00001E
:102EB800000000000000000000000000000000000A
:102EC8000000000000400070001C0007800100079F
:102ED800001C00700040000000000000000000001E
:102EE8000000001F803FC071C060C000C0018003A7
:102EF8000007000E000C000C0000000C000C000085
:102F0800000000000000001E003F803180718063D7
:102F1800806F806D806D806F806700600032003E3A
:102F2800001C0000000000000000000E000E001B46
:102F3800001B001B001B80318031803F803F8031A7
:102F4800C060C060C0600000000000000000007C9D
:102F5800007E0063006300630063007E007E006300
:102F6800806180618063007F007E000000000000B7
:102F78000000001E003F803180610060006000603A
:102F880000600060006080618031003F001E00002A
:102F9800000000000000007C007F00638063806107
:102FA8008061806180618061806100630063007E70
:102FB800007C0000000000000000807F807F00602F
:102FC800006000600060007F007F006000600060BB
:102FD8000060807F807F0000000000000000807F8C
:102FE800807F0060006000600060007F007F0060FC
:102FF80000600060006000600060000000000000E9
:103008000000001E003F80318061006000600060A9
:1030180080638063806180618031803F001E000092
:103028000000000000008061806180618061806133
:103038008061807F807F8061806180618061806144
:1030480080610000000000000000003F003F000C0D
:10305800000C000C000C000C000C000C000C000C08
:10306800000C003F003F000000000000000080014D
:103078008001800180018001800180018001800140
:10308800806180618073003F001E00000000000026
:103098000000C0608061006300660066006C007814
:1030A800007C00660066006380618061C06000008B
:1030B8000000000000000060006000600060006028
:1030C8000060006000600060006000600060807F59
:1030D800807F0000000000000000C071C071C07B4C
:1030E800C07AC06AC06AC06EC064C060C060C06098
:1030F800C060C060C0600000000000000000807177
:103108008071807980798079806D806D806D80652F
:10311800806780678067806380630000000000002C
:103128000000001E003F0033806180618061806183
:1031380080618061806180610033003F001E000073
:10314800000000000000007E007F806380618061D5
:1031580080618063007F007E006000600060006026
:1031680000600000000000000000001E003F003367
:103178008061806180618061806180618065806735
:103188000033803F401E0000000000000000007E69
:10319800007F8063806180618063007F007E0066BD
:1031A8000063006380618061C0600000000000006F
:1031B8000000000E001F8031803100300038001EF2
:1031C80000078003806180618031003F001E00009D
:1031D800000000000000C0FFC0FF000C000C000C45
:1031E800000C000C000C000C000C000C000C000C77
:1031F800000C000000000000000080618061806118
:1032080080618061806180618061806180618061AE
:103218008073003F001E0000000000000000C06036
:10322800C060C060803180318031001B001B001BF2
:10323800001B000E000E000E00040000000000003D
:103248000000C0C0C0C0C0C0C0C0C0C0C0CC804C9E
:10325800804C805E80528052807380618061000063
:10326800000000000000C0C0806080610033003BA7
:10327800001E000C000C001E001F003B80718061C6
:10328800C0C00000000000000000C0C08061806174
:1032980000330033001E001E000C000C000C000C54
:1032A800000C000C000C0000000000000000803F33
:1032B800803F8001000300030006000C000C00188A
:1032C800001800300060807F807F00000000000050
:1032D800000F000F000C000C000C000C000C000C80
:1032E800000C000C000C000C000C000C000C000C76
:1032F800000F000F0000001800180018000C000C48
:10330800000C000C0006000600060006000300037F
:103318000003000000000000001E001E000600065A
:103328000006000600060006000600060006000665
:103338000006000600060006001E001E0000000C25
:10334800000C001E00120033003380618061000011
:103358000000000000000000000000000000000065
:103368000000000000000000000000000000000055
:103378000000000000000000000000000000000045
:10338800E0FF0000000000380018000C00000000FA
:103398000000000000000000000000000000000025
:1033A8000000000000000000000000000000000015
:1033B8000000001F803F80618001801F803F806186
:1033C8008063807FC03800000000000000000060BB
:1033D800006000600060006E007F80738061806123
:1033E800806180618073007F006E00000000000033
:1033F80000000000000000000000001E003F807375
:1034080080610060006080618073003F001E0000E2
:103418000000000000008001800180018001801D03
:10342800803F807380618061806180618073803FAC
:10343800801D0000000000000000000000000000E7
:103448000000001E003F00738061807F807F006065
:103458008071003F001E0000000000000000C0074F
:10346800C00F000C000C807F807F000C000C000C4B
:10347800000C000C000C000C000C00000000000008
:103488000000000000000000801D803F8073806104
:103498008061806180618073803F801D80018063CE
:1034A800007F003E00000060006000600060006F68
:1034B800807F8071806180618061806180618061CE
:1034C8008061000000000000000000060006000007
:1034D8000000003E003E000600060006000600064A
:1034E80000060006000600000000000000060006B6
:1034F80000000000003E003E000600060006000630
:10350800000600060006000600060046007E003C95
:103518000000006000600060006080610063006679
:10352800006C007C0076006300638061C06000006E
:10353800000000000000003E003E000600060006F5
:103548000006000600060006000600060006000643
:10355800000600000000000000000000000000005D
:10356800000080DDC0FFC0CEC0CCC0CCC0CCC0CC79
:10357800C0CCC0CCC0CC000000000000000000009F
:10358800000000000000006F807F80718061806112
:1035980080618061806180618061000000000000BE
:1035A80000000000000000000000001E003F8073C3
:1035B80080618061806180618073003F001E00002F
:1035C800000000000000000000000000006E007F06
:1035D800807380618061806180618073007F006E8C
:1035E8000060006000600060000000000000000053
:1035F800801D803F807380618061806180618073FD
:10360800803F801D80018001800180010000000052
:103618000000000000000067803F003900300030E3
:1036280000300030003000300030000000000000A2
:1036380000000000000000000000001E803F8061C4
:103648000060007F803F80018061007F001E0000D5
:103658000000000000000000000800180018007FAB
:10366800007F001800180018001800180018801FA4
:10367800800F0000000000000000000000000000B3
:10368800000080618061806180618061806180610B
:103698008063807F803D0000000000000000000083
:1036A800000000000000C060803180318031001BC4
:1036B800001B001B000E000E0006000000000000AA
:1036C8000000000000000000000080DD80DD80DDDB
:1036D80000550055005500770077002200220000B1
:1036E80000000000000000000000000000008061F1
:1036F80000330033001E000C000C001E00330033A2
:1037080080610000000000000000000000000000D0
:1037180080618061803100330033001B001B001B77
:10372800000E000E000E001C007C0070000000005F
:10373800000000000000C07FC07F80010003000679
:10374800000C00180030C07FC07F0000000000009F
:103758008003800700060006000600060006000E2B
:10376800001C001C000E00060006000600060006ED
:103778008007800300060006000600060006000613
:103788000006000600060006000600060006000601
:1037980000060006000600060038003C000C000C7D
:1037A800000C000C000C000E00070007000E000CB7
:1037B800000C000C000C000C003C0038000000005D
:1037C800000000000000000000008038807F0047F3
:1037D80000000000000000000000000000000000E1
:1037E80000000000000000000000000000000000D1
:1037F80000000000000000000000000000000000C1
:1038080000000000000000000000000000000000B0
:1038180000000000E003E003E003E003E003E0034E
:10382800E003E003C003C003C001C001C001C00140
:10383800C001000000000000E003E003E003000016
:1038480000000000000000003C1E3C1E3C1E3C1E08
:103858003C1E3C1E3C1E0000000000000000000052
:103868000000000000000000000000000000000050
:10387800000000000000000000000000CE01CE03A0
:10388800DE039E039C039C07FF3FFF7F3807380F2A
:10389800780F780F780EFFFFFFFFF01EF01CE01C7A
:1038A800E03CE03DE03900000000000000000000BE
:1038B800FC03FE0FEE1FE01EE01EE01EE01EE01FF0
:1038C800E00FE007F003FC01FE01FE01FE01FE012E
:1038D800FE01FE01FE3DFC3FF00FE001E0010000AB
:1038E80000000000033E07F78FE78EE79EE3BCE386
:1038F800B8E7F8E7F0F7E03FC001FF03FF07F30779
:10390800F30FF31EF33CF338F3787FF03FE0000049
:103918000000000000000000E007F80F780F781F93
:10392800781F781F780FF00FE00F801FC37FC3FB4D
:10393800E7F3F7F1F7F0FFF07FF03EF87F7CFF3F09
:10394800EF1F00000000000000000000E003E0039B
:10395800E003E003E003C003C00100000000000032
:10396800000000000000000000000000000000004F
:10397800000000000000000000000000000000003F
:103988003F007C00F001E001C003C007800780070A
:10399800800F000F000F000F000F000F000F800FA7
:1039A80080078007C007C003E001F0017C003F00EA
:1039B8000F000000007E001FC007C003E001F001F7
:1039C800F000F000F80078007800780078007800BF
:1039D8007800F800F000F000F001E001C003C00733
:1039E800001F007E00780000E003C003C001CE394C
:1039F800FF3F7F3F20037003F807780F3C1F38060E
:103A080000000000000000000000000000000000AE
:103A1800000000000000000000000000000000009E
:103A28000000000000000000C001C001C001C0018A
:103A3800C001C001C001FFFFFFFFC001C001C001FC
:103A4800C001C001C001000000000000000000002B
:103A5800000000000000000000000000000000005E
:103A6800000000000000000000000000000000004E
:103A78000000E003E003E003E003E001E001E0010F
:103A8800C0018003000000000000000000000000EA
:103A980000000000000000000000FE3FFE3F0000A4
:103AA800000000000000000000000000000000000E
:103AB80000000000000000000000000000000000FE
:103AC80000000000000000000000000000000000EE
:103AD80000000000000000000000E003E003E00335
:103AE800E003000000000000000000000F000F00CD
:103AF8001E001E003C003C0078007800F000F0003A
:103B0800E001E001C003C00380078007000F000F39
:103B1800001E001E003C003C0078007800F0000009
:103B2800F007F80F7C1F3E3E1E3C1F7C1F7C0F7861
:103B38000F780F780F780F780F780F781F7C1F7C1D
:103B48001E3C3E3E7C1FF80FF007000000000000FE
:103B580000000000F000F007F03FF03FF001F00136
:103B6800F001F001F001F001F001F001F001F001C5
:103B7800F001F001F001F001F001FF3FFF3F00000C
:103B88000000000000000000E00FF83F7C3C3C0013
:103B98003E003E003E003C003C007C00F800F00186
:103BA800E003C0078007000F001E003E003CFE3FF8
:103BB800FE3F00000000000000000000F00FF81FAA
:103BC8007C1C3E003E003E003C003C00F800F00F2C
:103BD800F80F7C003E001E001E001E001E003E0066
:103BE8007C1CF81FE01F000000000000000000001F
:103BF8007800F800F800F801F803F807F807780FDC
:103C0800781E781E783C78787878FFFFFFFF780078
:103C18007800780078007800780000000000000044
:103C280000000000FC1FFC1FFC1F001E001E001EE1
:103C3800001E001EE01FF81FFC007C003E003E0036
:103C48001E003E003E003C007C1CF81FE01F0000E8
:103C58000000000000000000FC01FE078E0F001F9E
:103C6800001E003E003C003CF83DFC3F3E7F1F7EAE
:103C78000F3C0F3C0F3C0F3C0F3E1F1E3E1FFC0F1E
:103C8800F00300000000000000000000FF3FFF3FBD
:103C9800FF3F0F001E001E003C0038007800F000B7
:103CA800F000E001E001C003C0038007800F800F2F
:103CB800000F001F001F00000000000000000000AF
:103CC800F807FC0F3E1F1E1E1E3E1E3E1E1E3C1FFA
:103CD800F80FF007F80FFC1E3E3E1F3C1F7C0F7CC0
:103CE8000F7C1F3C3E3FFC1FF00700000000000057
:103CF80000000000F007F80F7C1E3E3C1E3C1F7CB5
:103D08001F7C1F7C1F7C1F3C3F3EFF1FEF071F00CF
:103D18001E001E003E003C00F838F03FE01F000087
:103D2800000000000000000000000000000000008B
:103D380000000000E003E003E003E00300000000EF
:103D480000000000000000000000E003E003E003C2
:103D5800E003000000000000000000000000000078
:103D68000000000000000000E003E003E003E003BF
:103D78000000000000000000000000000000E00358
:103D8800E003E003E003E001E001E001C003800399
:103D980000000000000000000000000003000F0009
:103DA8003F00FC00F003C00F003F00FE003FC00FC3
:103DB800F003FC003F000F000300000000000000BB
:103DC80000000000000000000000000000000000EB
:103DD8000000000000000000FFFFFFFF00000000DF
:103DE8000000FFFFFFFF00000000000000000000CF
:103DF80000000000000000000000000000000000BB
:103E08000000000000E000F8007E801FE007F801D5
:103E18007E001F007E00F801E007801F007E00F88A
:103E280000E000000000000000000000F01FFC3F60
:103E38003E381F381F381E001E003C007800F00076
:103E4800E001C003C003C007C00700000000000075
:103E5800C007C007C0070000000000000000000005
:103E6800F803FE0F1E1F0F3E7F3CFF78EF79C773E4
:103E7800C7F38FF38FF38FF39FF39FF3FF73FF7BEA
:103E8800F779003C1C1FFC0FF8030000000000003D
:103E980000000000000000000000E003E003F0075D
:103EA800F007F007780F780F7C0E3C1E3C1E3E3C56
:103EB800FE3FFF3F1F780F780FF007F007F0000074
:103EC8000000000000000000000000000000F83FB3
:103ED800FC3F3E3C1E3C1E3C1E3C3E3C7C3CF03FB6
:103EE800F83F7E3C1F3C1F3C0F3C0F3C1F3CFE3FF5
:103EF800F83F000000000000000000000000000083
:103F08000000FF01FF07871F003E003C007C00788F
:103F18000078007800780078007C007C003E003F44
:103F2800831FFF07FF0100000000000000000000E1
:103F3800000000000000F07FFC7F7E781F781F786B
:103F48000F780F780F780F780F780F780F780F7831
:103F58001F781E787E78F87FE07F00000000000060
:103F680000000000000000000000FF3FFF3F003E8F
:103F7800003E003E003E003E003EFE3FFE3F003E4B
:103F8800003E003E003E003E003EFF3FFF3F000077
:103F98000000000000000000000000000000FF1FFB
:103FA800FF1F001E001E001E001E001E001EFF1F19
:103FB800FF1F001E001E001E001E001E001E001E09
:103FC800001E0000000000000000000000000000CB
:103FD8000000FE03FF0F871F003E007C007C007876
:103FE80000F800F87FF87FF80F780F7C0F7C0F3E01
:103FF8008F1FFF0FFE0300000000000000000000FC
:104008000000000000001F7C1F7C1F7C1F7C1F7CA1
:104018001F7C1F7C1F7CFF7FFF7F1F7C1F7C1F7CFA
:104028001F7C1F7C1F7C1F7C1F7C00000000000081
:1040380000000000000000000000FF3FFF3FE00319
:10404800E003E003E003E003E003E003E003E00350
:10405800E003E003E003E003E003FF3FFF3F00006D
:104068000000000000000000000000000000FC1F2D
:10407800FC1F7C007C007C007C007C007C007C00B9
:104088007C007C007C007C0078007800F838F03FE9
:10409800C03F000000000000000000000000000019
:1040A80000001F3C1E3C3C3C783CF03CE03DE03FBF
:1040B800C03F803FC03FE03FF03DF03C783C7C3C57
:1040C8003E3C1F3C0F3C00000000000000000000C8
:1040D800000000000000003E003E003E003E003EA2
:1040E800003E003E003E003E003E003E003E003ED8
:1040F800003E003E003EFF3FFF3F00000000000082
:10410800000000000000000000001FF81FFC1FFC5A
:104118003FFE3FFE3FFE7FFF77FF77FFF7F7E7F7AA
:10412800E7F3E7F3C7F307F007F007F007F000003D
:1041380000000000000000000000000000000F7CEC
:104148000F7C0F7E0F7F0F7F8F7F8F7FCF7FEF7B5F
:10415800EF79FF79FF78FF787F783F783F781F788D
:104168001F780000000000000000000000000000B0
:104178000000F007FC1F3E3E1F7C0F780F780FF8F9
:104188000FF80FF80FF80FF80FF80F780F781F7C5B
:104198003E3EFC1FF0070000000000000000000089
:1041A800000000000000FC3FFF3F1F3E0F3E0F3E97
:1041B8000F3E0F3E1F3E3F3EFC3FF03F003E003E9D
:1041C800003E003E003E003E003E000000000000B1
:1041D80000000000000000000000F007FC1F3E3E49
:1041E8001F7C0F780F780FF80FF80FF80FF80FF8FB
:1041F8000FF80F780F781F7C3E3EFC1FF8077C00F5
:104208003F000F0003000000000000000000F03F26
:10421800FC3F7E3C3E3C1E3C1E3C3E3C3C3CFC3C49
:10422800F03FE03FF03DF83C7C3C3E3C1E3C1F3CF0
:104238000F3C00000000000000000000000000002B
:104248000000FC07FE1F0E3E003C003C003C003E08
:10425800C01FF80FFE037F001F000F000F001F2074
:104268003E3CFC3FF01F0000000000000000000082
:10427800000000000000FFFFFFFFE003E003E00391
:10428800E003E003E003E003E003E003E003E0030E
:10429800E003E003E003E003E003000000000000A7
:1042A800000000000000000000000F7C0F7C0F7C65
:1042B8000F7C0F7C0F7C0F7C0F7C0F7C0F7C0F7C9E
:1042C8000F7C0F7C1E3C1E3C3E3EFC1FF00700008E
:1042D800000000000000000000000000000007F0DF
:1042E80007F007F80F780F7C1E3C1E3C1E3E3C1E54
:1042F8003C1F781F780FF80FF007F007F007E0036E
:10430800E0030000000000000000000000000000C2
:10431800000003E003F003F007F0E7F3E7F3E7F347
:10432800E773F77BF77FFF7F7F7F7F7F7E7F7E3F0F
:104338003E3E3E3E3E3E0000000000000000000001
:1043480000000000000007F80F7C1E3E3E3E3C1FA8
:10435800F80FF007E007E003E003F007F80F7C0F21
:104368007C1E3E3C1F780F780FF000000000000014
:104378000000000000000000000007F807780F7C2C
:104388001E3C1E3E3C1F780FF80FF007E003E003C9
:10439800E003E003E003E003E003E003E0030000E0
:1043A8000000000000000000000000000000FF7F87
:1043B800FF7F0F001F003E007C00F800F000E001C6
:1043C800E003C007800F000F001E003E007CFF7F47
:1043D800FF7F00000000000000000000FF078007CA
:1043E800800780078007800780078007800780078D
:1043F800800780078007800780078007800780077D
:1044080080078007800780078007FF07FF070000F5
:1044180000780078003C003C001E001E000F000FD2
:1044280080078007C003C003E001E001F000F0004E
:10443800780078003C003C001E001E000F000F00B2
:1044480007000000F07FF000F000F000F000F0003E
:10445800F000F000F000F000F000F000F000F000D4
:10446800F000F000F000F000F000F000F000F000C4
:10447800F000F07FF07F0000C000C001C001E00341
:10448800E003F007F0077807780F380F3C1E3C1E52
:104498001E3C1E3C0F380F78077800000000000013
:1044A8000000000000000000000000000000000004
:1044B80000000000000000000000000000000000F4
:1044C80000000000000000000000000000000000E4
:1044D800000000000000FFFFFFFF000000000000D8
:1044E800F0000000000000000000000000000000D4
:1044F80000000000000000000000000000000000B4
:1045080000000000000000000000000000000000A3
:104518000000000000000000000000000000000093
:10452800F80FFC3F7C3C3E003E003E00FE07FE1FAD
:104538003E3E3E7C3E783E7C7E7CFF3FCF1F0000A7
:104548000000000000000000003C003C003C003C73
:10455800003C003CF83DFE3F3E3F1F3E0F3C0F3CF9
:104568000F3C0F3C0F3C0F3C1F3C1E3C3E3FFC3FAA
:10457800F03B000000000000000000000000000008
:104588000000000000000000FE03FF0F871F003E30
:10459800003E003C007C007C007C003C003E003E6D
:1045A800871FFF0FFE03000000000000000000004E
:1045B8001F001F001F001F001F001F00FF07FF1F15
:1045C8003F3E1F3C1F7C1F7C1F7C1F781F781F7C71
:1045D8001F7C3F3C7F3EFF1FDF0F000000000000F4
:1045E80000000000000000000000000000000000C3
:1045F800F803FC0F3E1F1E3E1F3C1F7CFF7FFF7F02
:10460800007C007C003C003E071FFF0FFE030000FB
:104618000000000000000000FF01E103C003C00724
:10462800C007C007FF7FFF7FC007C007C007C007DC
:10463800C007C007C007C007C007C007C007C0073A
:10464800C00700000000000000000000000000009B
:104658000000000000000000EF07FF1F7F3E1F3C26
:104668001F7C1F7C1F781F781F781F7C1F7C3F3C96
:104678007F3EFF1FDF0F1E001E001E007C38F83F24
:10468800003C003C003C003C003C003CFC3DFE3F44
:104698009E3F1F3F1F3E1F3C1F3C1F3C1F3C1F3CB3
:1046A8001F3C1F3C1F3C1F3C1F3C0000000000003B
:1046B80000000000F001F001000000000000000010
:1046C800E07FE07FE001E001E001E001E001E001DE
:1046D800E001E001E001E001E001E001E0010000AB
:1046E8000000000000000000F800F80000000000D2
:1046F80000000000F83FF83FF800F800F800F80064
:10470800F800F800F800F800F800F800F800F800E1
:10471800F800F800F800F000F071E07F003C003C81
:10472800003C003C003C003C1F3C3E3C7C3CF83CD0
:10473800F03DE03DC03FC03FE03FF03DF83C7C3CF1
:104748003E3C1F3C1F3C0000000000000000000031
:10475800F07FF001F001F001F001F001F001F0014B
:10476800F001F001F001F001F001F001F001F001B9
:10477800F001F001F001F001F0010000000000007C
:104788000000000000000000000000000000000021
:104798009EF7FFFFFFFFFFFFE7FBE7F9C7F1C7F150
:1047A800C7F1C7F1C7F1C7F1C7F1C7F1C7F10000F9
:1047B80000000000000000000000000000000000F1
:1047C80000000000FC3DFE3F9E3F1F3F1F3E1F3C78
:1047D8001F3C1F3C1F3C1F3C1F3C1F3C1F3C1F3CF9
:1047E8001F3C000000000000000000000000000066
:1047F8000000000000000000F007FC1F3E3E1F3CC8
:104808001F7C0F780F780F780F780F781F7C1F3C6C
:104818003E3EFC1FF0070000000000000000000002
:10482800000000000000000000000000F83DFE3F0E
:104838003E3F1F3E0F3C0F3C0F3C0F3C0F3C0F3CD4
:104848001F3C1E3E3E3FFC3FF83F003C003C003C06
:10485800003C003C000000000000000000000000D8
:10486800EE07FE1F7E3E1E3C1E7C1E781E781E78BC
:104878001E781E781E7C3E7C7E3EFE1FDE0F1E00CC
:104888001E001E001E001E000000000000000000A8
:10489800000000007F1FFF1FE71FC71F871F001FA3
:1048A800001F001F001F001F001F001F001F001F08
:1048B800001F0000000000000000000000000000D1
:1048C8000000000000000000FC07FE1F0E1E003E56
:1048D800003E003FE01FFC07FE003E001E001E00D9
:1048E8003E3CFC3FF01F00000000000000000000FC
:1048F800000000000000800780078007FF7FFF7F1F
:104908008007800780078007800780078007800767
:1049180080078007C007FF03FF01000000000000B8
:10492800000000000000000000000000000000007F
:104938001E3C1E3C1E3C1E3C1E3C1E3C1E3C1E3C9F
:104948001E3C1E3C3E3C7E3CFE3EFE1FDE0F000031
:10495800000000000000000000000000000000004F
:104968000000000007F00F780F781E3C1E3C1E3E2A
:104978003C1E3C1E780F780FF00FF007F007E0039D
:10498800E00300000000000000000000000000003C
:10499800000000000000000003F0E3F1E3F3E7F398
:1049A800F7F3F7F3F77F777F7F7F7F7F7F7F3E3E49
:1049B8003E3E3E3E3E3E000000000000000000007B
:1049C8000000000000000000000000000F7C1E3EF8
:1049D8003C3E3C1FF80FF007F007E003F007F8072C
:1049E800F80F7C1E3E3E1F3C1F78000000000000B0
:1049F80000000000000000000000000000000000AF
:104A080007F80F780F7C1E3C1E3C3C1E3C1E3C1FCA
:104A1800780FF80FF007F007E003E003C003C003C6
:104A2800C0038007800F007F000000000000000026
:104A380000000000FF3FFF3F1F003E007C00F80021
:104A4800F001E003C007800F001F001E003CFF7F3D
:104A5800FF7F00000000000000000000FE01E003EE
:104A6800C003C003C003C003E001E001E001C001CE
:104A7800C003803F803FC003C001E001E001E001C6
:104A8800C003C003C003C003E003FE017E000000B2
:104A9800C001C001C001C001C001C001C001C00106
:104AA800C001C001C001C001C001C001C001C001F6
:104AB800C001C001C001C001C001C001C001C001E6
:104AC800C0010000C03FE003E001E001E001E001B7
:104AD800C001C003C003C001E001FE00FE00E00108
:104AE800C001C003C003C001E001E001E001E00132
:104AF800E003C03F003F000000000000000000008D
:104B08000000000000000000000000000000073F57
:104B1800C77FE773FFF17EF000000000000000008F
:104B2800000000000000000000000000000000007D
:104B3800000000000000000000000000000000006D
:104B480000100010001000100010001000000010ED
:104B580000000000002800280028000000000000D5
:104B6800000000000000000000240024007C002455
:104B78000048007C0048004800000000003800544D
:104B88000050003800140054005400380010000091
:104B98000020005400580030002800540014000879
:104BA8000000000000100028002800100034004811
:104BB8000048003400000000001000100010000041
:104BC80000000000000000000000000000080010C5
:104BD80000200020002000200020002000100008F5
:104BE800002000100008000800080008000800085D
:104BF80000100020001000380010002800000000FD
:104C0800000000000000000000000000001000107C
:104C1800007C0010001000000000000000000000F0
:104C2800000000000000000000000010001000104C
:104C38000000000000000000000000380000000034
:104C4800000000000000000000000000000000005C
:104C5800000000100000000000080008001000100C
:104C68000010001000200020000000000038004460
:104C78000044005400440044004400380000000090
:104C8800001000300050001000100010001000103C
:104C98000000000000380044004400040008001030
:104CA8000020007C000000000038004400040018C8
:104CB8000004000400440038000000000008001848
:104CC800002800280048007C0008000800000000B8
:104CD800007C0040004000780004000400440038D4
:104CE8000000000000380044004000780044004400
:104CF8000044003800000000007C00040008001098
:104D080000100020002000200000000000380044AF
:104D1800004400380044004400440038000000000B
:104D28000038004400440044003C000400440038BB
:104D3800000000000000000000100000000000005B
:104D4800000000100000000000000000000000103B
:104D5800000000000000001000100010000000001B
:104D6800000C003000400030000C00000000000083
:104D7800000000000000007C0000007C0000000033
:104D88000000000000000000006000180004001887
:104D98000060000000000000003800440004000823
:104DA800001000100000001000000000003800444F
:104DB800004C0054005C0040004000380000000037
:104DC80000100028002800280028007C0044004427
:104DD80000000000007800440044007800440044CB
:104DE8000044007800000000003800440040004003
:104DF80000400040004400380000000000700048F7
:104E080000440044004400440048007000000000D2
:104E1800007C00400040007C004000400040007CD6
:104E280000000000007C0040004000780040004086
:104E380000400040000000000038004400400040EE
:104E4800005C0044004400380000000000440044B6
:104E58000044007C0044004400440044000000007A
:104E6800003800100010001000100010001000386A
:104E78000000000000040004000400040004000412
:104E88000044003800000000004400480050006062
:104E98000050004800480044000000000040004066
:104EA80000400040004000400040007C000000003E
:104EB8000044006C006C005400440044004400446A
:104EC8000000000000440064006400540054004CDA
:104ED800004C004400000000003800440044004436
:104EE80000440044004400380000000000780044FA
:104EF80000440044007800400040004000000000EA
:104F08000038004400440044004400440054003881
:104F18000004000000780044004400440078004881
:104F28000048004400000000003800440040003001
:104F3800000800040044003800000000007C001055
:104F480000100010001000100010001000000000F9
:104F58000044004400440044004400440044003835
:104F680000000000004400440044002800280028F5
:104F780000100010000000000044004400540054D9
:104F88000054006C0028002800000000004400289D
:104F9800002800100010002800280044000000002D
:104FA80000440044002800280010001000100010E1
:104FB80000000000007C0004000800100010002021
:104FC8000040007C000000000018001000100010D5
:104FD8000010001000100010001000180020002021
:104FE8000010001000100010000800080000000069
:104FF8000030001000100010001000100010001009
:1050080000100030001000280028004400000000B4
:105018000000000000000000000000000000000088
:105028000000000000000000000000FE002000104A
:105038000000000000000000000000000000000068
:105048000000000000380044003C0044004C0034DC
:105058000000000000400040005800640044004484
:105068000064005800000000000000000038004400
:105078000040004000440038000000000004000424
:105088000034004C00440044004C00340000000090
:105098000000000000380044007C00400044003854
:1050A80000000000000C0010007C00100010001030
:1050B8000010001000000000000000000034004C48
:1050C80000440044004C00340004007800400040D4
:1050D80000580064004400440044004400000000FC
:1050E80000100000007000100010001000100010E8
:1050F80000000000001000000070001000100010F8
:1051080000100010001000E000400040004800506F
:1051180000600050004800440000000000700010CB
:105128000010001000100010001000100000000017
:10513800000000000078005400540054005400544B
:105148000000000000000000005800640044004413
:105158000044004400000000000000000038004443
:105168000044004400440038000000000000000033
:1051780000580064004400440064005800400040A7
:10518800000000000034004C00440044004C00348F
:1051980000040004000000000058006400400040C3
:1051A80000400040000000000000000000380044FB
:1051B80000300008004400380000000000200020F3
:1051C80000780020002000200020001800000000C7
:1051D800000000000044004400440044004C003437
:1051E80000000000000000000044004400280028DF
:1051F80000280010000000000000000000540054C7
:105208000054006C00280028000000000000000086
:10521800004400280010001000280044000000008E
:10522800000000000044004400280028001000107E
:105238000010006000000000007C00080010002042
:105248000040007C00000000001800100010001052
:10525800002000200010001000100018001000109E
:1052680000100010001000100010001000100010B6
:105278000030001000100010000800080010001096
:10528800001000300000000000000074004C000016
:10529800000000000000000054657374696E672EFA
:1052A8002E2E00007E256420465053004142434480
:1052B80045464748494A4B00466F6E742031367858
:1052C80032360000466F6E74203131783138000074
:1052D800466F6E74203778313000000000000000FF
:1052E800000000000102030406070809000000008E
:1052F80001020304232D302B2000686C4C006566E6
:10530800674546470030313233343536373839410E
:105318004243444546003031323334353637383924
:08532800616263646566000028
:04533000310100083F
:045334000D0100085F
:105338000B1200008C2A0008101A0000E837000839
:10534800070A0000344B00080100000010000000AC
:1053580000A24A042800002000000000000000000D
:105368000000000000000000000000000000000035
:105378000000000000000000000000000000000025
:105388000000000000000000000000000000000015
:105398000000000000000000000000000000000005
:1053A80000000000000000000000000000000000F5
:0853B8000000000000000000ED
:04000005080021517D
:00000001FF
