:020000040800F2
:1000000000500020D90D0008690200086B020008AA
:100010006D0200086F020008710200080000000075
:100020000000000000000000000000007302000853
:10003000750200080000000077020008790200083D
:10004000210E0008210E0008210E0008210E0008D4
:10005000210E0008210E0008210E0008210E0008C4
:10006000210E0008210E0008210E0008210E0008B4
:10007000210E0008210E0008210E0008210E0008A4
:10008000210E0008210E0008210E0008210E000894
:10009000210E0008210E0008210E0008210E000884
:1000A000210E0008210E0008210E0008210E000874
:1000B000210E0008210E0008210E0008210E000864
:1000C000210E0008210E0008210E0008210E000854
:1000D000210E0008210E0008210E0008210E000844
:1000E000210E0008210E0008210E0008000000006B
:1000F0000000000000000000000000000000000000
:0C01000000000000000000005FF808F1A3
:10010C0010B5054C237833B9044B13B10448AFF345
:10011C0000800123237010BD0C00002000000000A3
:10012C007C0E000808B5034B1BB103490348AFF321
:10013C00008008BD00000000100000207C0E0008AC
:10014C0010B590B02422002107A800F089FE0024ED
:10015C0001940294039404940594022306930123BE
:10016C000A9310230B9306A800F0BAF90F230193FE
:10017C000294039404940594214601A800F0D6FB44
:10018C0010B010BD08B500F071F9FFF7D9FF00F001
:10019C0005F800F013F8FEE77047000082B0064B3C
:1001AC009A6942F008029A619B6903F00803019373
:1001BC00019B02B0704700BF0010024008B50B480D
:1001CC000B4B03600B4B436000238360C3604FF405
:1001DC008042026143618361C361036200F06CF889
:1001EC0000B908BDFFF7D8FFFBE700BF28000020CF
:1001FC0000540040A086010010B586B00023029385
:10020C000393049305930268114B9A4201D006B0F4
:10021C0010BD104CA36943F00803A361A36903F05C
:10022C0008030093009BC023029312230393032320
:10023C00059302A9084800F05DFCE36943F4001340
:10024C00E361E36903F400130193019BDFE700BF53
:10025C000054004000100240000C01407047FEE7C3
:10026C00FEE7FEE7FEE770477047704708B500F001
:10027C000FF908BD82B00E4B9A6942F001029A61E7
:10028C009A6902F001020092009ADA6942F08052F7
:10029C00DA61DB6903F080530193019B054A5368D3
:1002AC0023F0E06343F08063536002B0704700BFFB
:1002BC000010024000000140002800F0A28038B578
:1002CC00044690F83D30002B4FD0242384F83D3069
:1002DC002268136823F00103136000F0FBFB6268D3
:1002EC004A4B9A4246D84A4B98428CBF0023012372
:1002FC00002B40F08880474BA3FB00239B0C22680B
:10030C0053606168414A91423AD8013322681362C2
:10031C0061683E4B99423DD8431E4900B3FBF1F353
:10032C000133C3F30B03042B38BF04232268D361BE
:10033C00E369216A22680B4313602369E168226830
:10034C000B4393606369A16922680B43D3602268F5
:10035C00136843F00103136000202064202384F809
:10036C003D30206384F83E0038BD80F83C30FFF708
:10037C0043FFAAE7284B98428CBF00230123B7E721
:10038C004FF4967202FB03F3244AA2FB03239B094E
:10039C000133BBE7A368BBB9421E01EB4105B2FBBD
:1003AC00F5F20132C2F30B02B2FA82F2520932BBFD
:1003BC00C3B9013801EB4103B0FBF3F30133C3F3D1
:1003CC000B0343F40043B1E7421E01EB810505EB3F
:1003DC008505B2FBF5F20132C2F30B02B2FA82F2DE
:1003EC005209E4E7013801EB810303EB8303B0FB13
:1003FC00F3F30133C3F30B0343F4404396E70123B8
:10040C0094E7012070470120AEE700BFA0860100F1
:10041C007F841E0083DE1B43FF083D00D34D62101A
:10042C0010B504460E4B18784FF47A73B3FBF0F307
:10043C000C4A1068B0FBF3F000F08CFC68B90F2C80
:10044C0001D901200AE0002221464FF0FF3000F0D4
:10045C004DFC054B1C60002000E0012010BD00BFCE
:10046C0000000020080000200400002008B5074A06
:10047C00136843F010031360032000F025FC0020E8
:10048C00FFF7CEFFFFF7F6FE002008BD002002406C
:10049C00034A1168034B1B780B441360704700BF71
:1004AC007C00002000000020014B1868704700BF42
:1004BC007C00002082B0084B1B68084AA2FB032377
:1004CC005B0A00FB03F0019000BF019B5A1E0192D6
:1004DC00002BF9D102B0704708000020D34D6210F8
:1004EC0070B582B00446036813F0010F2CD0AB4BEF
:1004FC005B6803F00C03042B1DD0A84B5B6803F066
:10050C000C03082B12D06368B3F5803F41D0002B4D
:10051C0055D103F1804303F504331A6822F4803279
:10052C001A601A6822F480221A6037E09B4B5B68D1
:10053C0013F4803FE7D0994B1B6813F4003F03D0B2
:10054C006368002B00F0AE81236813F0020F76D0A5
:10055C00924B5B6813F00C0F5FD0904B5B6803F011
:10056C000C03082B54D02369002B00F08A808C4B91
:10057C0001221A60FFF798FF0546884B1B6813F0A1
:10058C00020F75D1FFF790FF401B0228F5D903200D
:10059C008BE1824A136843F480331360636843B37E
:1005AC00FFF782FF05467D4B1B6813F4003FCBD150
:1005BC00FFF77AFF401B6428F5D9032075E1B3F5EA
:1005CC00A02F09D0754B1A6822F480321A601A6871
:1005DC0022F480221A60E1E703F18043A3F53C3357
:1005EC001A6842F480221A601A6842F480321A6047
:1005FC00D4E7FFF759FF0546684B1B6813F4003F1F
:10060C00A2D0FFF751FF401B6428F5D903204CE121
:10061C00624B5B6813F4803FA5D1604B1B6813F0F1
:10062C00020F04D02369012B01D001203DE15B4A6C
:10063C00136823F0F803616943EAC103136023686C
:10064C0013F0080F32D0A369002B5BD0554B01225D
:10065C001A60FFF729FF0546504B5B6A13F0020F37
:10066C0021D1FFF721FF401B0228F5D903201CE103
:10067C004A4A136823F0F803616943EAC103136023
:10068C00DDE7474B00221A60FFF70EFF0546434B90
:10069C001B6813F0020FD2D0FFF706FF401B022895
:1006AC00F5D9032001E10120FFF704FF236813F0C3
:1006BC00040F00F09780394BDB6913F0805F33D166
:1006CC00364BDA6942F08052DA61DB6903F0805311
:1006DC000193019B0125344B1B6813F4807F25D0BB
:1006EC00E368012B36D0002B4CD103F1804303F58A
:1006FC0004331A6A22F001021A621A6A22F0040206
:10070C001A622CE0274B00221A60FFF7CDFE05463B
:10071C00224B5B6A13F0020FC8D0FFF7C5FE401BDB
:10072C000228F5D90320C0E00025D4E71E4A13683F
:10073C0043F480731360FFF7B7FE06461A4B1B6831
:10074C0013F4807FCCD1FFF7AFFE801B6428F5D962
:10075C000320AAE0114A136A43F001031362E36811
:10076C0073B3FFF7A1FE06460C4B1B6A13F0020F86
:10077C0037D1FFF799FE801B41F288339842F3D9A9
:10078C00032092E0052B11D0044B1A6A22F00102CF
:10079C001A621A6A22F004021A62E0E700100240A0
:1007AC00000042428004424200700040414B1A6AF1
:1007BC0042F004021A621A6A42F001021A62CEE78F
:1007CC00FFF772FE06463B4B1B6A13F0020F08D074
:1007DC00FFF76AFE801B41F288339842F3D903205D
:1007EC0063E0E5B9E369002B5ED0324A526802F04F
:1007FC000C02082A5BD0022B17D02F4B00221A6058
:10080C00FFF752FE04462B4B1B6813F0007F47D0BA
:10081C00FFF74AFE001B0228F5D9032045E0254AC4
:10082C00D36923F08053D361DCE7234B00221A6099
:10083C00FFF73AFE05461F4B1B6813F0007F06D0EE
:10084C00FFF732FE401B0228F5D903202DE0236A66
:10085C00B3F5803F1AD017494B6823F47413226AFE
:10086C00606A024313434B60134B01221A60FFF77B
:10087C001BFE04460F4B1B6813F0007F0ED1FFF7D5
:10088C0013FE001B0228F5D903200EE0094A536819
:10089C0023F40033A1680B435360DCE7002004E031
:1008AC00002002E0012000E0002002B070BD012019
:1008BC00FBE700BF001002406000424210B487B05A
:1008CC00164C94E80F000DF1180C0CE90F00238A5C
:1008DC00ADF80430124B5B6803F00C02082A1AD1F5
:1008EC00C3F38342624412F8102C13F4803F05D1F9
:1008FC000C4800FB02F007B010BC7047084B5B685B
:10090C00C3F34043634413F8143C074800FB02F064
:10091C00B0FBF3F0EFE70448EDE700BF940E0008DE
:10092C000010024000093D0000127A00624B1B6867
:10093C0003F007038B420CD25F4A136823F00703C2
:10094C000B431360136803F007038B4201D00120A3
:10095C00704770B5036813F0020F17D013F0040F33
:10096C0004D0564A536843F4E0635360036813F0B1
:10097C00080F04D0514A536843F4605353604F4AF4
:10098C00536823F0F0038468234353600D460446F8
:10099C00036813F0010F52D04368012B23D0022BB4
:1009AC0028D0464A126812F0020F00F082804349A8
:1009BC004A6822F0030213434B60FFF775FD0646AD
:1009CC006368012B1DD0022B2AD03C4B5B6813F0C3
:1009DC000C0F34D0FFF768FD801B41F2883398422E
:1009EC00F3D9032064E0354A126812F4003FDED1DB
:1009FC0001205DE0314A126812F0007FD7D101204E
:100A0C0056E02E4B5B6803F00C03042B17D0FFF75A
:100A1C004BFD801B41F288339842F2D9032047E00A
:100A2C00264B5B6803F00C03082B08D0FFF73CFD4A
:100A3C00801B41F288339842F2D9032038E01E4BD8
:100A4C001B6803F00703AB420CD91B4A136823F055
:100A5C0007032B431360136803F00703AB4201D069
:100A6C00012025E0236813F0040F06D0134A5368C5
:100A7C0023F4E063E1680B435360236813F0080F21
:100A8C0007D00E4A536823F46053216943EAC1032B
:100A9C005360FFF713FF094B5B68C3F30313084A5A
:100AAC00D35CD840074B18600020FFF7B9FC00203E
:100ABC0070BD0120FCE700BF002002400010024086
:100ACC00A80E000808000020014B1868704700BFF2
:100ADC000800002008B5FFF7F7FF044B5B68C3F371
:100AEC000223034AD35CD84008BD00BF001002406B
:100AFC00B80E0008F0B482B000263546A1E0002CF8
:100B0C0059D0012C00D1CE68FF2B68D88446FF2B1E
:100B1C0068D8AC00DCF800200F27A74022EA0702B7
:100B2C0006FA04F42243CCF800204A6812F0805FE5
:100B3C0000F086805E4A946944F0010494619269E5
:100B4C0002F001020192019AAC08A71C594A52F812
:100B5C00272005F00307BF004FF00F0C0CFA07FC21
:100B6C0022EA0C0C544A904242D002F58062904228
:100B7C007FD002F5806290427DD002F58062904277
:100B8C0034D0042235E04D4FBC4214D00BD94C4F1D
:100B9C00BC4210D007F58037BC420CD0A7F58017AB
:100BAC00BC42B1D107E0A7F58017BC4203D007F5D2
:100BBC008037BC42A8D18C687CB1012C08D0426132
:100BCC000826A1E7CE6808369EE7CE680C369BE770
:100BDC000261082698E7002696E7042694E700F1C0
:100BEC00040C94E7A5F10804A40093E7032200E0A9
:100BFC000022BA4042EA0C0202342E4F47F824205D
:100C0C004A6812F4803F38D02E4C22681A43226076
:100C1C004A6812F4003F36D02A4C62681A4362606C
:100C2C004A6812F4801F34D0264CA2681A43A26082
:100C3C004A6812F4001F32D0224CE2681343E3607E
:100C4C0001350F2D31D80122AA400B6813409A426E
:100C5C00F6D14C68122CB8D095D8022CB2D07FF6B5
:100C6C004EAF032CB7D0112C7FF44EAFCE680436A8
:100C7C004AE70122BDE70222BBE7124C226822EAB6
:100C8C0003022260C4E70F4C626822EA030262602E
:100C9C00C6E70C4CA26822EA0302A260C8E7094C22
:100CAC00E26822EA0303E360CAE702B0F0BC7047D3
:100CBC00001002400000014000080140000021101B
:100CCC000000311000040140074AD36823F4E063AC
:100CDC001B041B0C000200F4E060184340F0BF60E2
:100CEC0040F40030D060704700ED00E030B4174B9A
:100CFC00DB68C3F30223C3F10704042C28BF0424CC
:100D0C001D1D062D18D9033B4FF0FF3505FA04F4D1
:100D1C0021EA0401994005FA03F322EA030319437B
:100D2C0000280BDB0901C9B200F1604000F56140FD
:100D3C0080F8001330BC70470023E5E700F00F008B
:100D4C000901C9B2024B1954F4E700BF00ED00E0F1
:100D5C0014ED00E00138B0F1807F0AD2064B5860E8
:100D6C00064AF02182F823100020986007221A60AE
:100D7C0070470120704700BF10E000E000ED00E07C
:100D8C000F4B1A6842F001021A6059680D4A0A406A
:100D9C005A601A6822F0847222F480321A601A683F
:100DAC0022F480221A605A6822F4FE025A604FF430
:100DBC001F029A60044B4FF000629A60704700BFAC
:100DCC00001002400000FFF800ED00E0002103E0FD
:100DDC000B4B5B58435004310A480B4B42189A4258
:100DEC00F6D30A4A02E0002342F8043B084B9A422D
:100DFC00F9D3FFF7C5FF00F00FF8FFF7C3F9704701
:100E0C00C80E0008000000200C0000200C00002080
:100E1C0080000020FEE7000070B500250C4E0D4C44
:100E2C00A41BA410A54209D100F022F800250A4EFB
:100E3C000A4CA41BA410A54205D170BD56F8253050
:100E4C0098470135EEE756F8253098470135F2E71B
:100E5C00C00E0008C00E0008C00E0008C40E00082A
:100E6C0003460244934200D1704703F8011BF9E793
:100E7C00F8B500BFF8BC08BC9E467047F8B500BF7B
:080E8C00F8BC08BC9E4670474B
:100E940002030405060708090A0B0C0D0E0F1010B7
:100EA4000102000000000000000000000102030431
:0C0EB4000607080900000000010203040A
:040EC00031010008F4
:040EC4000D01000814
:0C0EC800010000001000000000A24A041D
:0400000508000DD909
:00000001FF
